{"abi":[{"type":"constructor","inputs":[{"name":"_entropy","type":"address","internalType":"address"}],"stateMutability":"nonpayable"},{"type":"function","name":"_entropyCallback","inputs":[{"name":"sequence","type":"uint64","internalType":"uint64"},{"name":"provider","type":"address","internalType":"address"},{"name":"randomNumber","type":"bytes32","internalType":"bytes32"}],"outputs":[],"stateMutability":"nonpayable"},{"type":"function","name":"deriveFromSeed","inputs":[{"name":"seed","type":"bytes32","internalType":"bytes32"}],"outputs":[{"name":"","type":"uint256","internalType":"uint256"},{"name":"","type":"uint256","internalType":"uint256"}],"stateMutability":"pure"},{"type":"function","name":"entropy","inputs":[],"outputs":[{"name":"","type":"address","internalType":"contract IEntropyV2"}],"stateMutability":"view"},{"type":"function","name":"getResult","inputs":[{"name":"sequenceNumber","type":"uint64","internalType":"uint64"}],"outputs":[{"name":"n1","type":"uint256","internalType":"uint256"},{"name":"n2","type":"uint256","internalType":"uint256"},{"name":"fulfilled","type":"bool","internalType":"bool"},{"name":"requester","type":"address","internalType":"address"}],"stateMutability":"view"},{"type":"function","name":"requestPair","inputs":[],"outputs":[],"stateMutability":"payable"},{"type":"function","name":"requestPairWithGas","inputs":[{"name":"customGasLimit","type":"uint32","internalType":"uint32"}],"outputs":[],"stateMutability":"payable"},{"type":"function","name":"requestPairWithProvider","inputs":[{"name":"provider","type":"address","internalType":"address"},{"name":"customGasLimit","type":"uint32","internalType":"uint32"}],"outputs":[],"stateMutability":"payable"},{"type":"function","name":"requestPairWithUserRandom","inputs":[{"name":"provider","type":"address","internalType":"address"},{"name":"userRandomNumber","type":"bytes32","internalType":"bytes32"},{"name":"customGasLimit","type":"uint32","internalType":"uint32"}],"outputs":[],"stateMutability":"payable"},{"type":"function","name":"requests","inputs":[{"name":"","type":"uint64","internalType":"uint64"}],"outputs":[{"name":"requester","type":"address","internalType":"address"},{"name":"provider","type":"address","internalType":"address"},{"name":"userContribution","type":"bytes32","internalType":"bytes32"},{"name":"customGasLimit","type":"uint32","internalType":"uint32"}],"stateMutability":"view"},{"type":"function","name":"results","inputs":[{"name":"","type":"uint64","internalType":"uint64"}],"outputs":[{"name":"n1","type":"uint256","internalType":"uint256"},{"name":"n2","type":"uint256","internalType":"uint256"},{"name":"fulfilled","type":"bool","internalType":"bool"},{"name":"requester","type":"address","internalType":"address"}],"stateMutability":"view"},{"type":"event","name":"RandomPairGenerated","inputs":[{"name":"sequenceNumber","type":"uint64","indexed":true,"internalType":"uint64"},{"name":"n1","type":"uint256","indexed":false,"internalType":"uint256"},{"name":"n2","type":"uint256","indexed":false,"internalType":"uint256"},{"name":"requester","type":"address","indexed":true,"internalType":"address"}],"anonymous":false},{"type":"event","name":"Requested","inputs":[{"name":"sequenceNumber","type":"uint64","indexed":true,"internalType":"uint64"},{"name":"requester","type":"address","indexed":true,"internalType":"address"}],"anonymous":false}],"bytecode":{"object":"0x60a060405234801561000f575f5ffd5b506040516122cc3803806122cc83398181016040528101906100319190610137565b5f73ffffffffffffffffffffffffffffffffffffffff168173ffffffffffffffffffffffffffffffffffffffff160361009f576040517f08c379a0000000000000000000000000000000000000000000000000000000008152600401610096906101bc565b60405180910390fd5b8073ffffffffffffffffffffffffffffffffffffffff1660808173ffffffffffffffffffffffffffffffffffffffff1681525050506101da565b5f5ffd5b5f73ffffffffffffffffffffffffffffffffffffffff82169050919050565b5f610106826100dd565b9050919050565b610116816100fc565b8114610120575f5ffd5b50565b5f815190506101318161010d565b92915050565b5f6020828403121561014c5761014b6100d9565b5b5f61015984828501610123565b91505092915050565b5f82825260208201905092915050565b7f656e74726f7079207a65726f00000000000000000000000000000000000000005f82015250565b5f6101a6600c83610162565b91506101b182610172565b602082019050919050565b5f6020820190508181035f8301526101d38161019a565b9050919050565b60805161209b6102315f395f81816102af0152818161039f015281816106540152818161074401528181610a0101528181610a2601528181610b0b01528181610d4201528181610e3201526113a1015261209b5ff3fe608060405260043610610090575f3560e01c80634c44895b116100585780634c44895b1461013f57806352a5f1f81461015b578063d0dcdb6d14610183578063edff42d6146101c2578063f9ec879c1461020157610090565b806316fd20a81461009457806336dbcc15146100b0578063411010ec146100cc57806347ce07cc1461010b5780634b3813e614610135575b5f5ffd5b6100ae60048036038101906100a9919061183e565b61023e565b005b6100ca60048036038101906100c5919061188e565b6105e3565b005b3480156100d7575f5ffd5b506100f260048036038101906100ed9190611909565b610987565b6040516101029493929190611961565b60405180910390f35b348015610116575f5ffd5b5061011f6109ff565b60405161012c91906119ff565b60405180910390f35b61013d610a23565b005b61015960048036038101906101549190611a18565b610d3f565b005b348015610166575f5ffd5b50610181600480360381019061017c9190611a43565b611072565b005b34801561018e575f5ffd5b506101a960048036038101906101a49190611909565b61116a565b6040516101b99493929190611ac5565b60405180910390f35b3480156101cd575f5ffd5b506101e860048036038101906101e39190611909565b6111c2565b6040516101f89493929190611ac5565b60405180910390f35b34801561020c575f5ffd5b5061022760048036038101906102229190611b08565b61129f565b604051610235929190611b33565b60405180910390f35b5f73ffffffffffffffffffffffffffffffffffffffff168373ffffffffffffffffffffffffffffffffffffffff16036102ac576040517f08c379a00000000000000000000000000000000000000000000000000000000081526004016102a390611bb4565b60405180910390fd5b5f7f000000000000000000000000000000000000000000000000000000000000000073ffffffffffffffffffffffffffffffffffffffff1663ca1642e1836040518263ffffffff1660e01b81526004016103069190611bd2565b602060405180830381865afa158015610321573d5f5f3e3d5ffd5b505050506040513d601f19601f820116820180604052508101906103459190611c30565b9050806fffffffffffffffffffffffffffffffff1634101561039c576040517f08c379a000000000000000000000000000000000000000000000000000000000815260040161039390611ca5565b60405180910390fd5b5f7f000000000000000000000000000000000000000000000000000000000000000073ffffffffffffffffffffffffffffffffffffffff1663f77b45e1836fffffffffffffffffffffffffffffffff168787876040518563ffffffff1660e01b815260040161040d93929190611cc3565b60206040518083038185885af1158015610429573d5f5f3e3d5ffd5b50505050506040513d601f19601f8201168201806040525081019061044e9190611d0c565b905060405180608001604052803373ffffffffffffffffffffffffffffffffffffffff1681526020018673ffffffffffffffffffffffffffffffffffffffff1681526020018581526020018463ffffffff168152505f5f8367ffffffffffffffff1667ffffffffffffffff1681526020019081526020015f205f820151815f015f6101000a81548173ffffffffffffffffffffffffffffffffffffffff021916908373ffffffffffffffffffffffffffffffffffffffff1602179055506020820151816001015f6101000a81548173ffffffffffffffffffffffffffffffffffffffff021916908373ffffffffffffffffffffffffffffffffffffffff160217905550604082015181600201556060820151816003015f6101000a81548163ffffffff021916908363ffffffff16021790555090505061058e3483611306565b3373ffffffffffffffffffffffffffffffffffffffff168167ffffffffffffffff167f786d60918d121c88062273dc32f67fb36099904f9775332400757ed909be3a4a60405160405180910390a35050505050565b5f73ffffffffffffffffffffffffffffffffffffffff168273ffffffffffffffffffffffffffffffffffffffff1603610651576040517f08c379a000000000000000000000000000000000000000000000000000000000815260040161064890611bb4565b60405180910390fd5b5f7f000000000000000000000000000000000000000000000000000000000000000073ffffffffffffffffffffffffffffffffffffffff1663ca1642e1836040518263ffffffff1660e01b81526004016106ab9190611bd2565b602060405180830381865afa1580156106c6573d5f5f3e3d5ffd5b505050506040513d601f19601f820116820180604052508101906106ea9190611c30565b9050806fffffffffffffffffffffffffffffffff16341015610741576040517f08c379a000000000000000000000000000000000000000000000000000000000815260040161073890611ca5565b60405180910390fd5b5f7f000000000000000000000000000000000000000000000000000000000000000073ffffffffffffffffffffffffffffffffffffffff16630e33da29836fffffffffffffffffffffffffffffffff1686866040518463ffffffff1660e01b81526004016107b0929190611d37565b60206040518083038185885af11580156107cc573d5f5f3e3d5ffd5b50505050506040513d601f19601f820116820180604052508101906107f19190611d0c565b905060405180608001604052803373ffffffffffffffffffffffffffffffffffffffff1681526020018573ffffffffffffffffffffffffffffffffffffffff1681526020015f5f1b81526020018463ffffffff168152505f5f8367ffffffffffffffff1667ffffffffffffffff1681526020019081526020015f205f820151815f015f6101000a81548173ffffffffffffffffffffffffffffffffffffffff021916908373ffffffffffffffffffffffffffffffffffffffff1602179055506020820151816001015f6101000a81548173ffffffffffffffffffffffffffffffffffffffff021916908373ffffffffffffffffffffffffffffffffffffffff160217905550604082015181600201556060820151816003015f6101000a81548163ffffffff021916908363ffffffff1602179055509050506109333483611306565b3373ffffffffffffffffffffffffffffffffffffffff168167ffffffffffffffff167f786d60918d121c88062273dc32f67fb36099904f9775332400757ed909be3a4a60405160405180910390a350505050565b5f602052805f5260405f205f91509050805f015f9054906101000a900473ffffffffffffffffffffffffffffffffffffffff1690806001015f9054906101000a900473ffffffffffffffffffffffffffffffffffffffff1690806002015490806003015f9054906101000a900463ffffffff16905084565b7f000000000000000000000000000000000000000000000000000000000000000081565b5f7f000000000000000000000000000000000000000000000000000000000000000073ffffffffffffffffffffffffffffffffffffffff16638204b67a6040518163ffffffff1660e01b8152600401602060405180830381865afa158015610a8d573d5f5f3e3d5ffd5b505050506040513d601f19601f82011682018060405250810190610ab19190611c30565b9050806fffffffffffffffffffffffffffffffff16341015610b08576040517f08c379a0000000000000000000000000000000000000000000000000000000008152600401610aff90611ca5565b60405180910390fd5b5f7f000000000000000000000000000000000000000000000000000000000000000073ffffffffffffffffffffffffffffffffffffffff16637b43155d836fffffffffffffffffffffffffffffffff166040518263ffffffff1660e01b815260040160206040518083038185885af1158015610b86573d5f5f3e3d5ffd5b50505050506040513d601f19601f82011682018060405250810190610bab9190611d0c565b905060405180608001604052803373ffffffffffffffffffffffffffffffffffffffff1681526020015f73ffffffffffffffffffffffffffffffffffffffff1681526020015f5f1b81526020015f63ffffffff168152505f5f8367ffffffffffffffff1667ffffffffffffffff1681526020019081526020015f205f820151815f015f6101000a81548173ffffffffffffffffffffffffffffffffffffffff021916908373ffffffffffffffffffffffffffffffffffffffff1602179055506020820151816001015f6101000a81548173ffffffffffffffffffffffffffffffffffffffff021916908373ffffffffffffffffffffffffffffffffffffffff160217905550604082015181600201556060820151816003015f6101000a81548163ffffffff021916908363ffffffff160217905550905050610ced3483611306565b3373ffffffffffffffffffffffffffffffffffffffff168167ffffffffffffffff167f786d60918d121c88062273dc32f67fb36099904f9775332400757ed909be3a4a60405160405180910390a35050565b5f7f000000000000000000000000000000000000000000000000000000000000000073ffffffffffffffffffffffffffffffffffffffff1663ca1642e1836040518263ffffffff1660e01b8152600401610d999190611bd2565b602060405180830381865afa158015610db4573d5f5f3e3d5ffd5b505050506040513d601f19601f82011682018060405250810190610dd89190611c30565b9050806fffffffffffffffffffffffffffffffff16341015610e2f576040517f08c379a0000000000000000000000000000000000000000000000000000000008152600401610e2690611ca5565b60405180910390fd5b5f7f000000000000000000000000000000000000000000000000000000000000000073ffffffffffffffffffffffffffffffffffffffff16630bed189f836fffffffffffffffffffffffffffffffff16856040518363ffffffff1660e01b8152600401610e9c9190611bd2565b60206040518083038185885af1158015610eb8573d5f5f3e3d5ffd5b50505050506040513d601f19601f82011682018060405250810190610edd9190611d0c565b905060405180608001604052803373ffffffffffffffffffffffffffffffffffffffff1681526020015f73ffffffffffffffffffffffffffffffffffffffff1681526020015f5f1b81526020018463ffffffff168152505f5f8367ffffffffffffffff1667ffffffffffffffff1681526020019081526020015f205f820151815f015f6101000a81548173ffffffffffffffffffffffffffffffffffffffff021916908373ffffffffffffffffffffffffffffffffffffffff1602179055506020820151816001015f6101000a81548173ffffffffffffffffffffffffffffffffffffffff021916908373ffffffffffffffffffffffffffffffffffffffff160217905550604082015181600201556060820151816003015f6101000a81548163ffffffff021916908363ffffffff16021790555090505061101f3483611306565b3373ffffffffffffffffffffffffffffffffffffffff168167ffffffffffffffff167f786d60918d121c88062273dc32f67fb36099904f9775332400757ed909be3a4a60405160405180910390a3505050565b5f61107b61139e565b90505f73ffffffffffffffffffffffffffffffffffffffff168173ffffffffffffffffffffffffffffffffffffffff16036110eb576040517f08c379a00000000000000000000000000000000000000000000000000000000081526004016110e290611da8565b60405180910390fd5b8073ffffffffffffffffffffffffffffffffffffffff163373ffffffffffffffffffffffffffffffffffffffff1614611159576040517f08c379a000000000000000000000000000000000000000000000000000000000815260040161115090611e36565b60405180910390fd5b6111648484846113c5565b50505050565b6001602052805f5260405f205f91509050805f015490806001015490806002015f9054906101000a900460ff16908060020160019054906101000a900473ffffffffffffffffffffffffffffffffffffffff16905084565b5f5f5f5f5f60015f8767ffffffffffffffff1667ffffffffffffffff1681526020019081526020015f206040518060800160405290815f820154815260200160018201548152602001600282015f9054906101000a900460ff161515151581526020016002820160019054906101000a900473ffffffffffffffffffffffffffffffffffffffff1673ffffffffffffffffffffffffffffffffffffffff1673ffffffffffffffffffffffffffffffffffffffff16815250509050805f01518160200151826040015183606001519450945094509450509193509193565b5f5f5f836040516020016112b39190611ec8565b6040516020818303038152906040528051906020012090505f846040516020016112dd9190611f37565b604051602081830303815290604052805190602001209050815f1c815f1c935093505050915091565b5f816fffffffffffffffffffffffffffffffff16836113259190611f89565b90505f811115611399575f3373ffffffffffffffffffffffffffffffffffffffff168260405161135490611fe9565b5f6040518083038185875af1925050503d805f811461138e576040519150601f19603f3d011682016040523d82523d5f602084013e611393565b606091505b50509050505b505050565b5f7f0000000000000000000000000000000000000000000000000000000000000000905090565b5f5f5f8567ffffffffffffffff1667ffffffffffffffff1681526020019081526020015f206040518060800160405290815f82015f9054906101000a900473ffffffffffffffffffffffffffffffffffffffff1673ffffffffffffffffffffffffffffffffffffffff1673ffffffffffffffffffffffffffffffffffffffff168152602001600182015f9054906101000a900473ffffffffffffffffffffffffffffffffffffffff1673ffffffffffffffffffffffffffffffffffffffff1673ffffffffffffffffffffffffffffffffffffffff16815260200160028201548152602001600382015f9054906101000a900463ffffffff1663ffffffff1663ffffffff168152505090505f73ffffffffffffffffffffffffffffffffffffffff16815f015173ffffffffffffffffffffffffffffffffffffffff1603611540576040517f08c379a000000000000000000000000000000000000000000000000000000000815260040161153790612047565b60405180910390fd5b5f826040516020016115529190611ec8565b6040516020818303038152906040528051906020012090505f8360405160200161157c9190611f37565b6040516020818303038152906040528051906020012090505f825f1c90505f825f1c90506040518060800160405280838152602001828152602001600115158152602001865f015173ffffffffffffffffffffffffffffffffffffffff1681525060015f8a67ffffffffffffffff1667ffffffffffffffff1681526020019081526020015f205f820151815f0155602082015181600101556040820151816002015f6101000a81548160ff02191690831515021790555060608201518160020160016101000a81548173ffffffffffffffffffffffffffffffffffffffff021916908373ffffffffffffffffffffffffffffffffffffffff160217905550905050845f015173ffffffffffffffffffffffffffffffffffffffff168867ffffffffffffffff167f147b023a7abaa895e9c8ddf02f2b6a93ede2ad365ea7d622f8a384d544f1631e84846040516116d3929190611b33565b60405180910390a35f5f8967ffffffffffffffff1667ffffffffffffffff1681526020019081526020015f205f5f82015f6101000a81549073ffffffffffffffffffffffffffffffffffffffff0219169055600182015f6101000a81549073ffffffffffffffffffffffffffffffffffffffff0219169055600282015f9055600382015f6101000a81549063ffffffff021916905550505050505050505050565b5f5ffd5b5f73ffffffffffffffffffffffffffffffffffffffff82169050919050565b5f6117a182611778565b9050919050565b6117b181611797565b81146117bb575f5ffd5b50565b5f813590506117cc816117a8565b92915050565b5f819050919050565b6117e4816117d2565b81146117ee575f5ffd5b50565b5f813590506117ff816117db565b92915050565b5f63ffffffff82169050919050565b61181d81611805565b8114611827575f5ffd5b50565b5f8135905061183881611814565b92915050565b5f5f5f6060848603121561185557611854611774565b5b5f611862868287016117be565b9350506020611873868287016117f1565b92505060406118848682870161182a565b9150509250925092565b5f5f604083850312156118a4576118a3611774565b5b5f6118b1858286016117be565b92505060206118c28582860161182a565b9150509250929050565b5f67ffffffffffffffff82169050919050565b6118e8816118cc565b81146118f2575f5ffd5b50565b5f81359050611903816118df565b92915050565b5f6020828403121561191e5761191d611774565b5b5f61192b848285016118f5565b91505092915050565b61193d81611797565b82525050565b61194c816117d2565b82525050565b61195b81611805565b82525050565b5f6080820190506119745f830187611934565b6119816020830186611934565b61198e6040830185611943565b61199b6060830184611952565b95945050505050565b5f819050919050565b5f6119c76119c26119bd84611778565b6119a4565b611778565b9050919050565b5f6119d8826119ad565b9050919050565b5f6119e9826119ce565b9050919050565b6119f9816119df565b82525050565b5f602082019050611a125f8301846119f0565b92915050565b5f60208284031215611a2d57611a2c611774565b5b5f611a3a8482850161182a565b91505092915050565b5f5f5f60608486031215611a5a57611a59611774565b5b5f611a67868287016118f5565b9350506020611a78868287016117be565b9250506040611a89868287016117f1565b9150509250925092565b5f819050919050565b611aa581611a93565b82525050565b5f8115159050919050565b611abf81611aab565b82525050565b5f608082019050611ad85f830187611a9c565b611ae56020830186611a9c565b611af26040830185611ab6565b611aff6060830184611934565b95945050505050565b5f60208284031215611b1d57611b1c611774565b5b5f611b2a848285016117f1565b91505092915050565b5f604082019050611b465f830185611a9c565b611b536020830184611a9c565b9392505050565b5f82825260208201905092915050565b7f7a65726f2070726f7669646572000000000000000000000000000000000000005f82015250565b5f611b9e600d83611b5a565b9150611ba982611b6a565b602082019050919050565b5f6020820190508181035f830152611bcb81611b92565b9050919050565b5f602082019050611be55f830184611952565b92915050565b5f6fffffffffffffffffffffffffffffffff82169050919050565b611c0f81611beb565b8114611c19575f5ffd5b50565b5f81519050611c2a81611c06565b92915050565b5f60208284031215611c4557611c44611774565b5b5f611c5284828501611c1c565b91505092915050565b7f696e73756666696369656e7420666565000000000000000000000000000000005f82015250565b5f611c8f601083611b5a565b9150611c9a82611c5b565b602082019050919050565b5f6020820190508181035f830152611cbc81611c83565b9050919050565b5f606082019050611cd65f830186611934565b611ce36020830185611943565b611cf06040830184611952565b949350505050565b5f81519050611d06816118df565b92915050565b5f60208284031215611d2157611d20611774565b5b5f611d2e84828501611cf8565b91505092915050565b5f604082019050611d4a5f830185611934565b611d576020830184611952565b9392505050565b7f456e74726f70792061646472657373206e6f74207365740000000000000000005f82015250565b5f611d92601783611b5a565b9150611d9d82611d5e565b602082019050919050565b5f6020820190508181035f830152611dbf81611d86565b9050919050565b7f4f6e6c7920456e74726f70792063616e2063616c6c20746869732066756e63745f8201527f696f6e0000000000000000000000000000000000000000000000000000000000602082015250565b5f611e20602383611b5a565b9150611e2b82611dc6565b604082019050919050565b5f6020820190508181035f830152611e4d81611e14565b9050919050565b5f819050919050565b611e6e611e69826117d2565b611e54565b82525050565b5f81905092915050565b7f72310000000000000000000000000000000000000000000000000000000000005f82015250565b5f611eb2600283611e74565b9150611ebd82611e7e565b600282019050919050565b5f611ed38284611e5d565b602082019150611ee282611ea6565b915081905092915050565b7f72320000000000000000000000000000000000000000000000000000000000005f82015250565b5f611f21600283611e74565b9150611f2c82611eed565b600282019050919050565b5f611f428284611e5d565b602082019150611f5182611f15565b915081905092915050565b7f4e487b71000000000000000000000000000000000000000000000000000000005f52601160045260245ffd5b5f611f9382611a93565b9150611f9e83611a93565b9250828203905081811115611fb657611fb5611f5c565b5b92915050565b5f81905092915050565b50565b5f611fd45f83611fbc565b9150611fdf82611fc6565b5f82019050919050565b5f611ff382611fc9565b9150819050919050565b7f756e6b6e6f776e207265717565737400000000000000000000000000000000005f82015250565b5f612031600f83611b5a565b915061203c82611ffd565b602082019050919050565b5f6020820190508181035f83015261205e81612025565b905091905056fea2646970667358221220dc4afc3eee4580bb177a99bb95a4905ac800e399127f9a7acdc93e79d6d3eb5a64736f6c634300081e0033","linkReferences":{}},"methodIdentifiers":{"_entropyCallback(uint64,address,bytes32)":"52a5f1f8","deriveFromSeed(bytes32)":"f9ec879c","entropy()":"47ce07cc","getResult(uint64)":"edff42d6","requestPair()":"4b3813e6","requestPairWithGas(uint32)":"4c44895b","requestPairWithProvider(address,uint32)":"36dbcc15","requestPairWithUserRandom(address,bytes32,uint32)":"16fd20a8","requests(uint64)":"411010ec","results(uint64)":"d0dcdb6d"},"id":6}